:1000000000000220750300005D0300005F03000094
:1000100061030000630300006503000000000000AE
:100020000000000000000000000000006703000066
:1000300069030000000000006B0300006D03000076
:100040006F0300006F030000211500006F03000024
:100050006F0300006F0300006F03000095150000A0
:10006000AD1A00006F0300006F0300006F03000073
:100070006F0300006F0300006F0300006F030000B8
:100080006F0300006F0300006F0300006F030000A8
:100090006F0300006F0300006F0300006F03000098
:1000A0006F0300006F0300006F0300006F03000088
:1000B0006F0300006F03000000000000000000005C
:1000C0006F0300006F0300006F0300006F03000068
:1000D0006F0300006F0300006F0300006F03000058
:1000E0006F0300000000000000000000000000009E
:1000F000000000006F030000000000006F0300001C
:1001000000000000000000000000000000000000EF
:1001100000000000000000000000000000000000DF
:1001200000000000000000000000000000000000CF
:1001300000000000000000000000000000000000BF
:1001400000000000000000000000000000000000AF
:10015000000000000000000000000000000000009F
:10016000000000000000000000000000000000008F
:10017000000000000000000000000000000000007F
:10018000000000000000000000000000000000006F
:10019000000000000000000000000000000000005F
:1001A000000000000000000000000000000000004F
:1001B000000000000000000000000000000000003F
:1001C000000000000000000000000000000000002F
:1001D000000000000000000000000000000000001F
:1001E000000000000000000000000000000000000F
:1001F00000000000000000000000000000000000FF
:10020000354936480A1A02D0072291438D463449AF
:1002100034480A1A06D00722914381F30988022242
:1002200082F3148830483149314A00F044F83148AB
:100230003149324A00F03FF831483249324A00F041
:100240003AF832483249334A00F035F832483349F7
:10025000334A00F030F833483349344A00F02BF881
:1002600033483449344A00F026F8344834490022EF
:1002700000F02CF833483449002200F027F83348C6
:100280003349091A082902DB002202604160314A21
:1002900090471F481F49884205D00268043003B4C4
:1002A000904703BCF7E700208646EC46002000217B
:1002B000294A9047FEE7884207D0521A05D00378B2
:1002C00001300B700131013AF9D17047884202D0F8
:1002D00002700130FAE770470000022000E00120C0
:1002E0000000022000000220DC2E000000000020A0
:1002F00034000020D0030000D0030000542A000086
:10030000DC2E00000000002000000020B82A0000C1
:10031000B82A0000B82A0000B82A0000B82A000055
:10032000B82A0000B82A0000B82A0000DC2E00001D
:10033000102F000034000020340000203400002082
:10034000D0060020D0060020D0060020D0060020D5
:10035000D02600209D030000E1260000FEE7FEE716
:10036000FEE7FEE7FEE7FEE7FEE7FEE7FEE7FEE765
:1003700000F002B8FFF7FCBF0F484FF007018843B9
:1003800085460E4880470E48016841F470010160BF
:10039000BFF34F8FBFF36F8FFFF732BF09480A4992
:1003A0000A4A884207D0521A05D0037801300B70F0
:1003B0000131013AF9D170470000022061270000A5
:1003C00088ED00E0B82A00000000002000000020B6
:1003D000F0B595B01D46164608460C4600F0DEFF07
:1003E0001A9B0D93CDE9086500252B46082205A927
:1003F00020460A958DF82C500C9500F0EBFF079BDA
:100400000293069B03939DF814308DF8115003F06E
:100410000302012A1DD1BDF81420059DC3F3C203B8
:10042000C2F383168DF81030B20008230EA92046BF
:1004300000F0D0FFC5F3952508AB0093324602AB20
:100440000EA9284600F0A4FB204600F0ABFF15B033
:10045000F0BD022AF8D1BDF81650C3F3C203C5F3AC
:1004600089158DF810300827082D2E4628BF08263C
:100470003B4632460EA9204600F0ACFFAD1B08AB50
:1004800002AA31460EA8374400F0E6FB002DEBD15E
:10049000DAE70000014B01221A7070477500002056
:1004A0007047000070B50E4D06460FCD88B06C4603
:1004B0000FC495E80F00002E84E80F00094A0A488F
:1004C0004FF0060308BF00226946009300F0EAFFE0
:1004D00008B100F01DFC054B1E7008B070BD00BFD8
:1004E000B82A00009504000000000020340000201D
:1004F00007B5044B0093044A4023FFF769FF03B09C
:100500005DF804FB0D0500003500002038B50D48EE
:100510000D4C0E4D002323700378EB5CD2B263B117
:10052000043001F083FF08B100F0F2FB084B1A78A9
:1005300012B12378002BFBD038BD0C3001F006FD42
:10054000F1E700BF00000020750000202406002015
:100550003400002008B50848084A0378D35C3BB152
:10056000043001F0D3FEBDE808400020FFF79ABF39
:100570000C3001F083FCF6E7000000202406002088
:100580000120FFF78FBF000008B5FFF7F9FF04480F
:10059000042100F067FA034B01225A7108BD00BF25
:1005A000942A000014000020037813F0040216D0EF
:1005B00003F00303012B03D0022B09D00120704765
:1005C0000A6800880232C0F3831002440A60F5E72B
:1005D0000B684288023303EB92130B60EEE7104680
:1005E000704700002DE9F04FDFF810A10F4685B0ED
:1005F0000446861C0020154600F0E0FBDAF80420D3
:100600003A60DAF8083003F580739B1A0AF21C4747
:100610000AF583690AF21448B34219D30020002D69
:1006200068D004F00F039B0143F0050363F30F0050
:10063000DAF80430DAB2033233444AF822000020F8
:10064000CAF8043000F0BCFB012005B0BDE8F08F13
:100650000121384600F0D9FB484600F0EEFB404649
:1006600000F0EBFBDAF808000090C0B203300AEBB0
:1006700080006946FFF798FF009B30BBDAB20AEBB7
:100680008202D16801919A1C0133DBB20AEB830329
:100690000092D3F80CB001F00303012B22D0022BFF
:1006A00015D08346404600F0CBFB10B1009BCAF842
:1006B00008305946384600F0A8FBDAF80830DAF876
:1006C000042003F580739B1AA6E7D8B2CEE7BDF8E5
:1006D0000630C3F3891303334FEA1B4B02EB93033A
:1006E0000093DFE7BDF80430C3F383134FEA1B4BDD
:1006F0001344F5E7A40544F0060099E748010020FB
:10070000064B074810B500221A7000F000FE0446A0
:1007100010B9044800F07EFE204610BD48010020BC
:10072000A42A00000C2B000030B50A4C71B10A4A13
:100730000A49121BD20800239A4201D1002030BD81
:1007400031F82350854202D00133F5E7034654F8CF
:100750003300F4E7542A0000942A0000000000202F
:10076000094B013903EBC000032909D8DFE801F088
:100770000A020406042070470079704740797047E8
:100780000020704702207047542A00007047000084
:10079000034BD3E90130C31A58425841704700BF98
:1007A000480100202DE9FF41FFF7F2FF0546002830
:1007B00040F0E980754CC4F81804BFF34F8FA3686C
:1007C0000093DBB2033304EB83006946FFF7ECFED2
:1007D000009B18B1D4F81824002A5AD0DAB2991C18
:1007E000013304EB8202DBB204EB8303D268DB68E3
:1007F000029302F00303022B0192009154D1BDF841
:1008000006306348C3F38917502F3E4628BF502651
:1008100006F1080166F38F13C1F30901ADF8063044
:1008200000F08DFD0546002800F0988000F0B6FD30
:100830000023082201A9284600F0C2FD0099CB43FD
:10084000DBB20133C9B20331B6EB830F4FEA830247
:1008500004EB810125D95FFA82F80823A6EB08068C
:10086000284600F0ADFDF6B208F10803494903F04F
:10087000FC033246284600F0A3FD009B033703EB40
:1008800097070097D4F81834002B43D1D4F810649C
:1008900053E062689A4294D8A260284604B0BDE84A
:1008A000F08108233246E5E7012B57D1BDF804302B
:1008B0003748C3F38311062928BF062161F3891342
:1008C000023101F00F018900ADF8043000F037FD6E
:1008D0000546002842D000F061FD0023082201A94E
:1008E000284600F06DFD0026BDF80420C2F38312F7
:1008F000B300964203F10803C4D200994A1CC9B25E
:100900000331009204EB81010422284600F058FDD7
:100910000136E9E7284600F045FDFFF739FF80F092
:100920000100C5B2B9E7F3685B7923B133682946A2
:100930001B6830469847F3681E68002EF3D128469E
:1009400000F030FD304600F039FAD4F818340BB915
:10095000009BA360002000F033FADEE7D4F81044D7
:1009600054B90D4B0D480E49C01AC008000440F0A0
:10097000020000F05FF8D0E7236820469B689847A4
:10098000E3681C68ECE7002587E700BF480100200A
:10099000A42A000054010020542A0000842A0000E8
:1009A000F52A00002DE9F34704460E46924601A9B8
:1009B000012218469946FFF715FE1C4F10B3019D02
:1009C0004FF00008AA1CC84508EB020125D11848C1
:1009D000002100F0F7F980F31000000440EA144011
:1009E000E4006B1C04F03804DBB2EDB244F0010407
:1009F00007EB8303033544EA881444EA8624D8606D
:100A000047F825403B781BB1FFF7CCFE0028FBD10F
:100A1000FFF7BCFE02B0BDE8F087C9B207EB810169
:100A20005AF82830CB6008F10108CCE748010020D3
:100A30006405002000231A46FFF7B4BF07B5012361
:100A4000019201AAFFF7AEFF03B05DF804FB07B502
:100A5000CDE9002302236A46FFF7A4FF03B05DF847
:100A600004FB000030B50F4CD4F8102403460020DE
:100A7000114631B9D96808714AB9C4F810340A600E
:100A800030BDC9680D79854206D00968F1E7D268A2
:100A900014680C601360F3E701300A28E8D14FF0C6
:100AA000FF30EDE74801002038B5084B0125D3F8A9
:100AB00010441D7004B938BDE3685D712368204699
:100AC0005B689847E3681C68F4E700BF48010020B2
:100AD00030B5C38885B004460D4633B1144A009240
:100AE0001449154A284600F005FA217A05291DD037
:100AF000637A4BB1A088FFF733FE104B104953F8CF
:100B00002020284600F0F6F9227A0E4BA08853F8F0
:100B1000222003920021FFF707FE039A0A490346A9
:100B2000284605B0BDE8304000F0E4B905B030BD5E
:100B3000382B0000202B0000182B0000A42B0000F5
:100B40003D2B0000C82B0000402B000007B50346DA
:100B50000846197A052911D05B7A2BB1094A0A494E
:100B6000019000F0C7F901980849019000F0C2F91E
:100B7000019803B05DF804EB00F0B1B9002AF8D099
:100B8000F2E700BF382B00003D2B0000352B0000A2
:100B90002DE9F04385B01F460C9D002395F80C907D
:100BA0002B7306460C46904629463846FFF790FFC1
:100BB000B8F1060F09D8DFE808F00412181F28332F
:100BC00040003146284600F095F900222946384673
:100BD000FFF7BCFF85F80C9005B0BDE8F0832268F4
:100BE0003146284600F086F9EFE7D4E90023314684
:100BF000284600F07FF9E8E7A36800933146D4E97E
:100C00000023284600F076F9DFE7E3680193A36844
:100C100000933146D4E90023284600F06BF9D4E76D
:100C200023690293E3680193A36800933146D4E9F2
:100C30000023284600F05EF9C7E763690393236940
:100C40000293E3680193A36800933146D4E900233B
:100C5000284600F04FF9B8E708292DE9F74F8046FC
:100C60000E4617461C463CD8002593F80C901D7381
:100C700019461046FFF72CFFDFF888A0DFF888B090
:100C8000AE4231D918F805205946204600F032F915
:100C90000135082DF4D11949194DDFF870A020460F
:100CA00000F028F94FF0000B5E4522D918F80B2010
:100CB0007E2A05D81046019201F06EFE019A00B915
:100CC0002E225146204600F015F90BF1010BBBF125
:100CD000080FE9D1012221463846FFF737FF84F893
:100CE0000C9003B0BDE8F08F5146204600F002F9A9
:100CF000CEE72946204600F0FDF8E6E7542B000039
:100D0000522B0000502B00004A2B0000562B0000F5
:100D10001FB50021039001AA44F20100CDE90111A1
:100D200000F004F805B05DF804FB000038B572B6B9
:100D3000FFF7BAFEFFF736FD0028FBD1104B114C30
:100D4000114D1249E41AE408240444F00100FFF7AD
:100D500071FED5F8F030DB0700D500BE0C4944F039
:100D60000200FFF767FEBFF34F8FEA68094B02F4FA
:100D7000E0621343EB60BFF34F8F00BFFDE700BF9E
:100D8000542A0000842A000000ED00E0DC2B000063
:100D9000E82B00000400FA0572B6024A136801331A
:100DA0001360704700060020034A1368013B13607C
:100DB00003B962B6704700BF00060020FFF7ECBF22
:100DC000FFF7F2BF10B5034653E8000F0A4643E8A9
:100DD000002494F0000FF7D110BD10B5034653E87E
:100DE000002F42EA010043E8000494F0000FF6D11E
:100DF00010BD10B5034653E8000F00EA010243E8B6
:100E0000002494F0000FF6D110BD10B5034653E84E
:100E1000002F02EB010043E8000494F0000FF6D12C
:100E200010BD10B5034653E8002FA2EB010043E8C4
:100E3000000494F0000FF6D110BD0121FFF7CDBFE3
:100E40000021FFF7D6BF10B590B1D0E901230168AA
:100E50009B1ADBB20A60013BDBB2FF2B026802D1B6
:100E60000020107110BD11684C1C14600B70F2E76B
:100E70000E20F7E738B504460020FFF79FFF2268F1
:100E800063681168994213D9481E106011F8013C3B
:100E9000E568218A01FB0355A36811791B1ADBB2AF
:100EA000994200D213710020FFF78AFF284638BD0F
:100EB0000025F8E738B5054600200C46FFF77EFF11
:100EC0002A681368591C1160E968641A298AB4FBFE
:100ED000F1F41C70BDE838400020FFF771BF826854
:100EE00010B504462AB14369016800699847002398
:100EF000A36010BD0EB403B5039921B104AB01AAE0
:100F0000019300F077F802B05DF804EB03B070478E
:100F10000A2938B504460D4602D10D21FFF7F8FF26
:100F2000A3682268591CA160D554D4E901329A42C1
:100F300004D32046BDE83840FFF7D1BF38BD0000DC
:100F40002DE9F84F9846DDE90A43154682460F46DB
:100F50000A464FF00109AA420FD2C14538BFC14627
:100F600013F0010B01D16CB900240126B8F1010F77
:100F70001BD908F1FF386E43F8E709F10109B2FB0C
:100F8000F5F2E8E79B070ED5B8F1000F0CBF30264D
:100F90002026A145E9D2013C31465046FFF7B8FF73
:100FA000002CF6D1E0E72026F3E7B7FBF6F39D42ED
:100FB000E1D9DFF83C80B7FBF6F3504618F8031090
:100FC00006FB1377FFF7A4FF3346AB42B6FBF5F6FB
:100FD000F1D2BBF1000F02D00CB1A14501D3BDE8A5
:100FE000F88F20215046013CFFF792FFF4E700BF45
:100FF000F52B00002DE9F74F0546174688460029D6
:1010000000F03E8118F8011B49B92B7B002B00F042
:101010003781284603B0BDE8F04FFFF760BF2529B0
:1010200040F0B780002698F800302D2B424608F19A
:10103000010823D0302B24D02B2B25D000242A2BA1
:1010400002F1010123D13B681A1D1B683A601C4460
:101050000A4613782E2B26D101324FF0000A104693
:1010600010F8011BA1F1300CBCF1090F1DD80A23A7
:1010700003FB0A13A3F1300A0246F0E746F001062B
:10108000D1E746F00206CEE746F00406CBE711F8BA
:10109000013CA3F130000928DBD80A2202FB04340A
:1010A000303C0A46CBE74FF0000A12F8011B01F072
:1010B000FB0068289046F8D0782909D86F290CD809
:1010C000632962D022D8252963D0582900F088806E
:1010D00098F80030002B95D197E770390829F7D898
:1010E00001A353F821F000BF5B120000D1100000F3
:1010F000D1100000F1110000D1100000CF1100004C
:10110000D1100000D1100000E1110000642901D0CD
:101110006929DDD13A68D2F80090111D89EAE97297
:101120003960A2EBE9724FF0010B092A35DCD34597
:1011300038BFD3462CB1B9F1000F01DB720700D5DF
:10114000013CB30702D5BAF1000F03D0F00701D478
:101150004CBB0024B9F1000F2DDAC9F100092D2193
:101160002846FFF7D5FE06F00302022A04D1BAF1A1
:10117000000F01D11CBB0024CDE9004653460A22D2
:1011800049462846FFF7DCFEA2E73B681A1D19789E
:101190003A602846FFF7BCFE9AE70A230BF1010BE1
:1011A000B2FBF3F2C1E7A345D4D220212846013C8B
:1011B000FFF7AEFECCE77107D5D52B21D0E7A345CD
:1011C000DAD230212846013CFFF7A2FED2E7396887
:1011D000CDE900460A1D3A6053460A220968D0E765
:1011E00039680A1D3A60CDE9004653461022F5E7FA
:1011F0003B681A1D3A6016F00106D3F8009024D11E
:10120000B9F1000F03D0484601F0F4FB0646B442A2
:101210001DD809F1FF3919F8011F00293FF458AF13
:101220002846FFF775FEF6E728460136FFF770FE01
:1012300019F806100029F7D1A642BFF449AF2021C2
:101240002846013CFFF764FEF6E70026F0E7202180
:101250002846013CFFF75CFED9E73B681A1D3A605F
:10126000302128461C68FFF753FE78212846FFF7F7
:101270004FFE00220823CDE900322146102280E7EC
:1012800003B0BDE8F08F00BF2DE9F84FB0F806A01D
:101290004579D2F800B09DF828900AFB05F5043D89
:1012A00088460BEB0301A94203F1040488BFA5EBB8
:1012B000030BB4FBFAF607460AFB1644C2F800B06B
:1012C0004EB9AAEB04055D4528BF5D46BBF1000F92
:1012D00004D1BDE8F88F3F68013EF1E7043408EB24
:1012E00006003C442A46B9F1000F0DD02146ABEB75
:1012F000050B01F056FBDA452E443F6855464FF08A
:10130000000428BF5D46E1E701462046EFE7FFF70E
:101310009ABDF8B546790146721E054600239342F0
:101320002D6803D30024A64202D8F8BD0133F6E7A6
:101330000F682846FFF7BEFD01343946F3E72DE973
:10134000F843068ACD1C0746FFF794FD043E35445A
:101350000446B5FBF6F5F0B14FF48073EDB283802F
:10136000C680013D076081464FF00008A84512D2B3
:101370003846FFF77FFD064648B163790133637154
:1013800008F10108C9F8000007608146EEE7204631
:10139000FFF7BFFF34462046BDE8F8830121043043
:1013A000FFF733BD10B5012104460430FFF739FDC6
:1013B000C0B220B92046BDE81040FFF7AABF10BD5B
:1013C0001FB503920022009203AAFFF75DFF05B04C
:1013D0005DF804FB1FB503920122009203AAFFF7F8
:1013E00053FF05B05DF804FB064B10B500241C70DC
:1013F000054B1C60BFF35F8F0449054800F013F8EC
:10140000204610BD0C06002010060020102C000005
:1014100004060020836800225A60C3E904229A600F
:10142000DA601A6070470B684A684360934208BFED
:101430000023016008BF4360704700001FB50378B8
:101440008DF800304368019383688DF80830C368D5
:10145000054A0393054B684653F8213052F8211092
:10146000984705B05DF804FB140600201C06002018
:101470001FB503788DF800304368019383688DF8B9
:101480000830C368054A0393054B684653F821307A
:1014900052F82110984705B05DF804FB14060020AF
:1014A0001C060020F0B5194B90F800C0DFF86CE086
:1014B00043F82C20164B16460A6943F82C204B7F24
:1014C0000EF80C300C4607460FCC89B06D460FC5A0
:1014D00094E80F0085E80F003B78CDF810C01EF8A7
:1014E00003304BB1002E0B4A694608BF3246381D07
:1014F00000F030FE09B0F0BD002E074A694608BF73
:10150000324607F10C0000F0E9FBF3E71C0600206F
:10151000140600203D140000711400002406002071
:10152000014B1B68184700BF2806002038B50B4B3D
:1015300098420C4601D0002038BD0020FFF73EFC49
:10154000074B1D7915B901221C601A710020FFF7A5
:1015500037FC002DEFD01120EEE700BF0020004047
:1015600028060020034B984201BF034B00221A605B
:101570001A717047002000402806002000F18040CA
:1015800000F5E040002382B0036003680193019BF3
:1015900002B07047F0B5524B524CD3F8043185B0CD
:1015A000002B3DD094F82E204FF48270FFF7E6FF19
:1015B0002AB394F82F3013BB494AD2F80031002BDC
:1015C00032D04FF48070FFF7D9FF638B94F82D0071
:1015D000834250D921891B1A9BB289B26383CB1AEB
:1015E000616801EB4303C2F82C36C2F830064FF4B1
:1015F0008270FFF7C3FF3A4B01225A6014E0636820
:1016000002932389ADF80C30E36800218DF80410B3
:1016100033BB2374236801A89847002384F82F3034
:1016200094F82E30002BC7D12D4BD3F810315BB17D
:101630004FF48870FFF7A2FF0023237402238DF874
:10164000043001A823689847254BD3F81431EBB137
:101650004FF48A70FFF792FF0023237405B0F0BDAA
:10166000208B608363602081E160002AD2D11C4B13
:1016700001221A60CEE7BAD1E368012184F82F1065
:1016800013B100216183AEE76383B0E766694FF071
:1016900000470125002EE1D0B6FA86F227FA02F3C0
:1016A0004632920026EA030602F1804303F5E04346
:1016B0001B68002BEED01046A2F58C72FFF75EFF80
:1016C000D30882F00402C2F380028DF808308DF84E
:1016D000045023688DF8092001A89847DAE700BF75
:1016E000007000403006002038B5204A92F82C30B7
:1016F0000446002B37D111601D490078C1F8F00570
:101700006078C1F8F4050125E078137482F82D3073
:10171000536182F82F306FF0004382F82E0082F878
:101720002C504FF48270C1F80833FFF727FF4FF4B5
:101730008070FFF723FF4FF48A70FFF71FFFA37835
:101740000C485B01DBB280F807338023036002237F
:10175000C1F8043392F82E300BB1C1F80453C1F82C
:101760000055002038BD0820FCE700BF30060020EF
:101770000070004000E100E030B5224B1A7C002AE6
:101780003ED100F10C0403EB4402127922B993F824
:101790002D20013283F82D2003EB4403CA790C7A03
:1017A0008D781A715C714B782D021B0105F4E06590
:1017B00003F030032B430D7805F003052B43CD7860
:1017C0002D0305F480552B430D792D0405F4E025F8
:1017D0002B434D7989792D0505F48015090601F013
:1017E00080712B430B43010101F1804101F5E04180
:1017F0000020C1F81835C1F81445C1F8102530BDD6
:101800001120FCE73006002070B5324A147C04F049
:10181000FF03002C5CD1304C012503261574C4F85D
:101820000863C4F82C16C4F8305692F82D40AC4228
:101830000CD91D46190101F1804101F5E041013348
:10184000082BC1F81455C1F81055F3D100F10C0361
:10185000000102EB430300F1804000F5E0401979FC
:101860005B79C0F81435C0F810151B4901230B60D3
:101870004B6042F21073D1F8040108B9013BFAD170
:101880004FF48070FFF77AFE4FF48270FFF776FE18
:10189000012C11D90F4800210B0103F1804303F5FE
:1018A000E0430131047F457FC3F814550829C3F88C
:1018B000104500F10200EFD192F82E10064B29B12D
:1018C00003210020C3F80413107470BD0221F8E74F
:1018D0001120FAE7300600200070004070B5264A5B
:1018E000264B05461220C2F808031C7C022C03D1AB
:1018F000C2F80403112070BD187C01281CD1D868DF
:1019000018B10223C2F80433F4E7DD60198393F8B9
:101910002E305BB9D2F80031002BFBD04FF4807031
:10192000FFF72CFEC2F82C56C2F83016124B0222DA
:10193000C3F804230020DEE7022093F82E40C2F80B
:101940000403012600201E745D601981D8603CB13B
:10195000598393F82D30C2F82C56C2F83036CAE7B6
:10196000C2F82C564FF48070C2F83016FFF706FE0E
:1019700016602046BFE700BF007000403006002020
:10198000F0B51B4F8BB207EB001443EA0243C4F8D7
:101990001C35184B40005C6900F1010C4FF000460B
:1019A00011F5006F26FA0CF64FF0800505FA00F5E8
:1019B0000BBFB44334435C615C610CBFC7F8085390
:1019C000C7F8045340244FF000455969844025FA74
:1019D00000F040F2FF75AA42054A0BBF8143014364
:1019E000596159610CBFC2F80843C2F80443F0BD05
:1019F000007000403006002010B5124B1A7CF2B97E
:101A000000F10C0103EB4102127922B193F82D2071
:101A1000013A83F82D2003EB410300249C8003014D
:101A200003F1804303F5E0430749C3F8144540F24E
:101A3000FF72C3F81045FFF7A3FF204610BD112029
:101A4000FCE700BF3006002000F8FFFF38B5144B5C
:101A50006FF00042C3F80823124A8021C2F88010B8
:101A6000BFF34F8FBFF36F8F01229A6042F2107263
:101A7000D3F8141109B9013AFAD10B4D0024C3F877
:101A800000452C7405EB44031B7F13B1E0B2FFF754
:101A9000B3FF0134082CF5D1002385F82C3038BD74
:101AA0000070004000E100E0300600202DE9F34125
:101AB000104C114F114E00254FF48038236883B12C
:101AC000D7F8043308FA05F21A420AD0002323603B
:101AD00023680193A4F50040019B80B2D6E9003150
:101AE00098470135042D04F10404E7D102B0BDE8A4
:101AF000F08100BF4081004000800040600600206F
:101B00000023435082B043580193019B02B07047B9
:101B10000A4610B54FF48E71FFF7F2FF136A916811
:101B2000C95C136A01331362C0F81C1510BD8B69C0
:101B30000A4610B54FF4847123B9FFF7E1FFD0F8DE
:101B4000183510BDFFF7DCFF536AD168D0F81805CF
:101B5000C854536A01335362F3E700001FB50123F1
:101B60008DF80030044BCDE90110D3E9001268462E
:101B7000904705B05DF804FB6C06002030B54D4D74
:101B8000D5F804339A0585B051D5D5F82431002B0A
:101B90004DD04FF492712846FFF7B2FF4FF4017316
:101BA000C5F80833444B93F829200AB901226A602A
:101BB000404902228DF80020D1F88024C1F8802409
:101BC00003929A690292DA6801920022C3E906221E
:101BD0006846D3E9001290473648D0F81C315BB113
:101BE000354A5169136A99424DD992F82830002B31
:101BF00049D11146FFF78CFF2E48D0F84431002B15
:101C000056D04FF4A271FFF77BFF2B4B93F829209E
:101C10000AB1012202609A69002A49D0586AD9683B
:101C200000229A6105B0BDE83040FFF797BFD5F8B4
:101C300004335B07D0D5D5F80831002BCCD01E4C2F
:101C40001C482146FFF773FF636AA2699A42C3D119
:101C5000E369E1684BB1A3612369E3600023606A33
:101C6000E3616362FFF77AFFB6E794F829300BB9B6
:101C700001236B600F4B4FF40172C3F8082300235C
:101C8000606AA361EEE70B484FF48E71FFF738FFEF
:101C90005369002BB0D051690291002391688DF8EF
:101CA0000030019153616846D2E900139847A3E7D9
:101CB00005B030BD002000406C0600201F2886BF04
:101CC00000F01F00044B4FF0A04300F5E07002222B
:101CD00043F82020704700BF000300502DE9F8436F
:101CE000604D90F804802C2303FB0853064693F8BC
:101CF0002A300C469146002B40F0AF805A490068CC
:101D0000FFF714FC0746002840F0A9802268531C06
:101D100010D01F2A87BF554902F01F0313464FF00A
:101D2000A0410120984003F5E073C1F808050320A5
:101D300041F823006168481C0DD01F298BBF01F0BA
:101D40001F030B4649484FF0A04003F5E0734FF0E6
:101D5000000C40F823C03068A369C0F8243594F81B
:101D600014C0637DBCF1010F4CEA0303C0F86C356D
:101D7000C0F81415C0F80C252BD1A368591C0DD040
:101D80001F2B8BBF03F01F021A4638494FF0A041AA
:101D900002F5E0724FF0000C41F822C0E1684A1CE5
:101DA00013D01F2987BF314A01F01F0C8C464FF01A
:101DB000A0424FF0010E0EFA0CFE0CF5E07CC2F8CA
:101DC00008E54FF0030E42F82CE0C0F80815C0F803
:101DD00010352C2202FB08F2AB18C3F804902369DB
:101DE000AB50B9F1000F20D04FF48E71247FFFF774
:101DF00087FE4FF4A2713068FFF782FE32681C4BF9
:101E0000C2F80433130B42F307326101002AC9B24E
:101E10001EDB1848841884F800130121520903F0CE
:101E20001F0301FA03F340F8223033680422C3F899
:101E300000252C2303FB08530022C3E9062283F864
:101E400029205A61012283F82A203846BDE8F88308
:101E5000094A03F00F03D154E7E70827F5E71127F4
:101E6000F3E700BF6C0600207D1B0000000300505C
:101E70008000020000E100E014ED00E02DE9F041F7
:101E800003680579284C0022C3F800252C2202FBA8
:101E9000054201465268A2B1244AC3F808231A0B2E
:101EA00043F30733002B0CDB02F01F005B09012218
:101EB000824020331E4840F82320BFF34F8FBFF3EA
:101EC0006F8F0B68D3F80C05D3F81485D3F8086529
:101ED000D3F810754FF0FF329042C3F81425C3F8C1
:101EE0000C25C3F80825C3F8102501D0FFF7E6FE3E
:101EF000B8F1FF3F02D04046FFF7E0FE7A1C02D067
:101F00003846FFF7DBFE731C02D03046FFF7D6FEE3
:101F10000868FFF727FB2C2303FB0544002384F804
:101F20002A306360BDE8F0816C0600208402020064
:101F300000E100E00279044B2C2101FB02335869D7
:101F4000003818BF012070476C0600202DE9F84FBB
:101F5000064690F8048089469246FFF7EBFF044658
:101F600000283CD1204F2C2508FB057B4FF48E71B7
:101F7000CBF814A0CBF80890CBF820008BF8280001
:101F80003068FFF7BDFD3068012383605946FFF7D5
:101F9000BFFDDBF804305D461BBB3068DBF8144046
:101FA0002B6A9C4211D83368D3F81C21002AFBD03D
:101FB0000122DA6000202C2303FB087700237B61D9
:101FC000BDE8F88F95F828303BB9D0F81C31002BCC
:101FD000F8D05946FFF79CFDE2E70F20EBE7112010
:101FE000EEE72046ECE700BF6C06002000234350DC
:101FF00082B043580193019B02B070471FB5012383
:102000008DF80030044BCDE90110D3E90012684689
:10201000904705B05DF804FB980600207FB5434A61
:10202000D2F82461002E60D010464FF49271FFF771
:10203000DDFF02238DF80030D2F88034C2F88034FE
:102040000393D2F83C350293394BDA6801920022AF
:10205000C3E906226846D3E9001290473348D0F816
:10206000443173B14FF4A271FFF7C0FF304B9A694E
:102070003AB10022C3E90622D968D0F83C05FFF73F
:10208000BDFF2A48D0F82031ABB14FF49071FFF773
:10209000ADFF0123C360264B5A6962B1D0F84C15DD
:1020A0000291002299688DF8002001915A616846DA
:1020B000D3E9001290471D48D0F858319BB14FF436
:1020C000AC71FFF793FF1A4B5A6962B1D0F84C1507
:1020D0000291002299688DF8002001915A616846AA
:1020E000D3E90012904704B070BDD2F81031002B34
:1020F000B4D04FF488711046FFF778FF0C4BD2F83C
:102100003C0599698842A9D1DC69D96864B1D2F8E3
:10211000005225F02005C2F800521A699C61DA606D
:10212000DE61FFF76BFF99E79C61FAE70020004052
:10213000980600201F2886BF00F01F00044B4FF0B8
:10214000A04300F5E070022243F82020704700BF52
:10215000000300502DE9F843664E90F804802423D4
:1021600003FB0863044693F820300D469146002B8C
:1021700040F0BC8060490068FFF7D8F907460028A6
:1021800040F0B68029684B1C10D01F2987BF5B4ADE
:1021900001F01F030B464FF0A0420120984003F5C9
:1021A000E073C2F80805032042F823006A68501C57
:1021B0000DD01F2A8BBF02F01F0313464F484FF06C
:1021C000A04003F5E0734FF0000C40F823C02068F6
:1021D000AB69C0F8243595F814C06B7DBCF1010FD4
:1021E0004CEA0303C0F86C35C0F80C15C0F8142590
:1021F0002BD1AB68591C0DD01F2B8BBF03F01F02D6
:102200001A463E494FF0A04102F5E0724FF0000C33
:1022100041F822C0E9684A1C13D01F2987BF374AFA
:1022200001F01F0C8C464FF0A0424FF0010E0EFA49
:102230000CFE0CF5E07CC2F808E54FF0030E42F806
:102240002CE0C0F80815C0F81035242202FB08F273
:10225000B318C3F804902B69B350B9F1000F2FD015
:102260004FF488712A7FFFF7C1FE20684FF4907108
:10227000FFF7BCFE20684FF49271FFF7B7FE2068AD
:102280004FF4A271FFF7B2FE4FF4AC712068FFF774
:10229000ADFE23681A49C3F80413190B43F307333F
:1022A0005201002BD2B21CDB1648C51885F800235A
:1022B00001225B0901F01F0102FA01F140F823102D
:1022C00023680822C3F80025242303FB08660023A3
:1022D000C6E906337361012386F820303846BDE82D
:1022E000F883094B01F00F015A54E9E70827F5E795
:1022F0001127F3E7980600201D200000000300507E
:102300001003420000E100E014ED00E02DE9F0418F
:102310003D4D06790468242303FB065302465B689F
:10232000ABB13A4BC4F8083344F30733002B4FEA00
:1023300014310CDB01F01F005B09012181402033C7
:10234000334840F82310BFF34F8FBFF36F8FD4F89B
:10235000003223F02003C4F80032242303FB065389
:102360009B6933B14FF4A2712046FFF73FFE012372
:1023700063604FF4AC712046FFF738FE0123E36041
:10238000242303FB0653D4F858110029FBD0996984
:1023900019B1D4F844110029F5D00023C4F8003550
:1023A0001368D3F80C05D3F81485D3F80815D3F8BF
:1023B00010754FF0FF329042C3F80C25C3F8142576
:1023C000C3F80825C3F8102501D0FFF7B3FEB8F114
:1023D000FF3F02D04046FFF7ADFE7A1C02D03846E0
:1023E000FFF7A8FE4B1C02D00846FFF7A3FE2046CD
:1023F000FFF7B8F8242303FB0655002385F82030A7
:102400006B60BDE8F08100BF980600201003420019
:1024100000E100E00279044B242101FB02335869FA
:10242000003818BF012070479806002001F0604373
:10243000B3F1005F2DE9F0470646884692463BD14E
:1024400090F80490FFF7E6FF0446002836D11D4FB0
:102450003068242505FB09754FF49071C5F814A068
:10246000C5F80880FFF7C2FD4FF4AC713068FFF784
:10247000BDFD33686A69A968C3F84415C3F84825E7
:1024800001229A606A68DAB9D3F82021D3F858019A
:102490001AB90028F8D00F2007E00028FBD101224C
:1024A000DA60D3F85821002AFBD0242303FB0977F4
:1024B00000237B61BDE8F0871020FBE71120F9E7DE
:1024C0002046F7E79806002000F5E0704FF0A043A3
:1024D000032243F82020704710B503780446CBBB95
:1024E00040680A21FFF7FAF908B1FEF711FC6268AB
:1024F0000023911E123231F9020F8A420344FAD1AD
:1025000007EE903AF8EEE77AB2EE047AC7EE876A01
:10251000114B12481249C01AC008000440F00300D1
:102520009FED107AC6EE877A9FED0F7A67EE877A75
:102530009FED0E7A67EE877AB1EE087A67EE877ABA
:10254000FDEEE77A17EE902AFEF778FABDE8104024
:10255000FFF77CBA10BD00BF542A0000842A000097
:10256000472C000000F07F459A99193F00007A44FB
:1025700038B5054D044645F001054FF47A40A847AB
:10258000013CFAD138BD00BF902C0000012303FAB2
:1025900000F04FF0A04311B9C3F80C057047C3F821
:1025A0000805704708B5024600F001010D20FFF74D
:1025B000EDFFC2F340010E20FFF7E8FFBDE8084041
:1025C000C2F380010F20FFF7E1BF08B50D20FFF730
:1025D0007BFF0E20FFF778FFBDE808400F20FFF7D4
:1025E00073BF00001FB5124A1068516801AB03C3E6
:1025F000117AD2F809001970009002230D498DF864
:1026000000306846FFF770F808B1FEF781FB01A9BA
:102610000020FFF7B1F808B1FEF77AFB06480A215F
:10262000FFF75CF908B1FEF773FB05B05DF804FB3A
:10263000802C0000D9240000BC060020F0B5224BFD
:10264000224C2DED048BE41AE40824049FED209A1B
:10265000DFED208A9FED208A83B044F0030400253B
:10266000E8B2FFF79FFF0120FFF782FF0A2700264D
:102670000DF106010020FFF7C7F8BDF90630013F54
:102680001E44F5D107EE906AF8EEE77AF2EE046A9E
:1026900087EEA67A2A46114920460135C7EE097A07
:1026A000B1EE087A67EEA87A67EE887A67EE877AE5
:1026B000FDEEE77A17EE903AFEF7C9F9082DCFD173
:1026C00003B0BDEC048BF0BD542A0000842A000046
:1026D00000F07F459A99193F00007A443B2C000096
:1026E000002108B50846FEF70BF808B1FEF710FB0D
:1026F000FDF74AFFFEF778FE08B1FEF709FBFFF78A
:1027000064FFFFF76FFF0A480A4B0B49C01AC00865
:10271000000440F00300FEF78DF9FFF78FFF4FF440
:10272000FA60FFF725FFFEF73DF80028FBD1F4E73C
:10273000842A0000542A00005F2C00004FF08053D0
:10274000D3F83001A0F10D03584258417047000002
:10275000024AD2F80034002BFBD0704700E0014061
:1027600010B5FFF7EBFF40B14FF080430022C3F8F4
:102770000C21C3F81021C3F83825FFF7DFFF00282C
:1027800046D04FF08052514BD2F80414C3F82015B4
:10279000D2F80814C3F82415D2F80C14C3F828157D
:1027A000D2F81014C3F82C15D2F81414C3F830154D
:1027B000D2F81814C3F83415D2F81C14C3F8401515
:1027C000D2F82014C3F84415D2F82414C3F84815DD
:1027D000D2F82814C3F84C15D2F82C14C3F85015AD
:1027E000D2F83014C3F85415D2F83414C3F8601575
:1027F000D2F83814C3F86415D2F83C14C3F868153D
:10280000D2F84014C3F86C15D2F84424C3F87025EC
:10281000FFF794FF48B14FF08043D3F80024D2076C
:1028200044BF6FF00102C3F80024294AD2F888306F
:1028300043F47003C2F88830BFF34F8FBFF36F8F3C
:102840004FF08053D3F830210D2A0ED1D3F8343114
:10285000022B02D81F4AD35C3BB14FF01023D3F8B0
:1028600008224FF08043C3F858254FF01023D3F8C7
:102870000022002A03DBD3F80432002B22DA1649A7
:1028800001234FF01020C1F804351224FFF760FF38
:10289000C0F80042FFF75CFFC0F80442FFF758FFA2
:1028A0000023C1F80435FFF753FFBFF34F8F0849EA
:1028B0000A4BCA6802F4E0621343CB60BFF34F8F48
:1028C00000BFFDE7064B074A1A6010BD00C000407C
:1028D00000ED00E0962C000000E001400400FA0545
:1028E0001C0000200090D0037F2805D8034B185C03
:1028F000034B5B5C1840704700207047A82C000019
:10290000282D0000A0F16103192B98BF20387047D3
:10291000A0F14103192B98BF203070477F2805D8BC
:10292000034B185C034B5B5C1840704700207047FA
:10293000A82C0000282D0000A0F16103192B98BFDE
:1029400020387047A0F14103192B98BF2030704701
:102950007F299ABF017001206FF02E0070475AB195
:102960000A787F2A0AD800B10260002119605960F4
:10297000501A18BF01207047002070476FF02E00DA
:102980007047000008B5034B5B689B681B6898475D
:1029900008BD00BF2000002008B50921FFF7F2FFA5
:1029A00008BD844640EA010313F0030F18D18446A2
:1029B000202A0BD32DE9F007B1E8F807A0E8F807C3
:1029C000A2F12002202AF7D2BDE8F007042A07D39B
:1029D00051F8043B40F8043BA2F10402042AF7D268
:1029E000002A05D011F8013B00F8013B013AF9D16A
:1029F0006046704700F1010110F0030F11D010F88C
:102A0000012B002A23D010F0030F0AD010F8012B5D
:102A1000002A1CD010F0030F03D010F8012B002A5D
:102A200015D02DE970004FF001324FF0803350F88F
:102A3000044BA4EB020525EA04051D4000D1F6E78E
:102A4000A0F1040070BC10F8012B002AFBD1A0EB10
:042A500001007047CA
:102A54001C2C000000000000202C000000000000DE
:102A6400242C0000000000002A2C000000000000BC
:102A7400302C000000000000352C00000000000095
:102A8400062B000000000303052C000000000000DA
:102A9400D82A000000000000E42A000014000020EE
:102AA4007800002040010020480100208000002020
:042AB4001800000006
:102AB800FFFFFFFFFFFFFFFFFFFFFFFFFFFFFFFF1E
:102AC80000000000000000000000D6010601000020
:102AD800F104000055050000A1040000756172743E
:102AE8005F6C6F675F6261636B656E640042616310
:102AF8006B656E647320666C7573686564006170DD
:102B080070000000680500207F000000E805002034
:102B18001B5B313B33316D0025734C6F6773206449
:102B2800726F70706564202825642925730D0A006A
:102B38001B5B306D002573003C25733E2025733ADE
:102B48002000202530327800202020007C002563DA
:102B5800001B5B313B33306D001B5B313B33326D07
:102B6800001B5B313B33336D001B5B313B33346DF2
:102B7800001B5B313B33356D001B5B313B33366DDE
:102B8800001B5B313B33376D007761726E696E678E
:102B980000696E666F00646562756700382B000017
:102BA800592B0000182B0000612B0000692B000036
:102BB800712B0000792B0000812B0000892B00006D
:102BC80000000000E22B0000912B0000992B000070
:102BD8009E2B0000466174616C206572726F7200F2
:102BE80053797374656D2072657365740030313282
:102BF8003334353637383941424344454670777265
:102C08005F6D676D74000000542A0000542A0000AC
:102C180004000000505049005052530053414144B1
:102C2800430054494D4552005541525400554152B4
:102C38005445004368616E6E656C2025643A2041F6
:102C480076657261676520566F6C74616765203DB3
:102C5800202564206D560053414144432073616D23
:102C6800706C696E672077697468204D55582073B9
:102C78007461727465642E00000000000200000197
:102C880000010006000000000338FDD8704700006E
:102C98000100000043000000504F53495800000055
:102CA80020202020202020202068282828282020B4
:102CB800202020202020202020202020202020200C
:102CC80048101010101010101010101010101010C4
:102CD8008484848484848484848410101010101064
:102CE80010818181818181010101010101010101BD
:102CF8000101010101010101010101101010101071
:102D0800108282828282820202020202020202028D
:102D18000202020202020202020202101010102035
:102D28000007032004170201085710408000000024
:102D38009C2C0000A02D0000B42E000053756E00DE
:102D48004D6F6E00547565005765640054687500D2
:102D58004672690053617400000000004A616E0009
:102D6800466562004D617200417072004D617900E4
:102D78004A756E004A756C004175670053657000AE
:102D88004F6374004E6F76004465630000000000D6
:102D9800414D00504D000000D82E0000D42E0000F8
:102DA800D42E0000D42E0000D42E0000D42E000013
:102DB800D42E0000D42E0000D42E0000D42E000003
:102DC800FFFFFFFFFFFFFFFFFFFFFFFFFFFF000009
:102DD800142E0000442D0000502E0000642D000029
:102DE800982D0000F82D0000A82E0000042E0000E9
:102DF800256D2F25642F25790000000025612025E9
:102E080062202565202554202559000053756E64DD
:102E18006179004D6F6E6461790054756573646102
:102E280079005765646E65736461790054687572DA
:102E380073646179004672696461790053617475DD
:102E480072646179000000004A616E7561727900F0
:102E58004665627275617279004D617263680041FE
:102E68007072696C004D6179004A756E65004A752B
:102E78006C79004175677573740053657074656D7E
:102E8800626572004F63746F626572004E6F76659B
:102E98006D62657200446563656D6265720000006D
:102EA80025483A254D3A255300000000E92800003E
:102EB80005290000112900001D29000039290000FA
:102EC80045290000512900005F290000000000008A
:042ED8002E000000C8
:102EDC000000000000200040000000000020004026
:102EEC000000000000000000FF0000000090D00374
:102EFC00382D0000382D0000382D0000382D000032
:042F0C00382D00005C
:040000030000037581
:00000001FF
